{
  "address": "0x5d1E419FD737577aF44B4e4A520eA0a7d20B8230",
  "abi": [
    {
      "inputs": [
        {
          "internalType": "address",
          "name": "_gateway",
          "type": "address"
        },
        {
          "internalType": "address",
          "name": "_token",
          "type": "address"
        }
      ],
      "stateMutability": "nonpayable",
      "type": "constructor"
    },
    {
      "inputs": [],
      "name": "gateway",
      "outputs": [
        {
          "internalType": "contract IAxelarGateway",
          "name": "",
          "type": "address"
        }
      ],
      "stateMutability": "view",
      "type": "function"
    },
    {
      "inputs": [
        {
          "internalType": "uint256",
          "name": "tokenAmount",
          "type": "uint256"
        },
        {
          "internalType": "address",
          "name": "receiver",
          "type": "address"
        },
        {
          "internalType": "string",
          "name": "chain",
          "type": "string"
        },
        {
          "internalType": "string",
          "name": "tokenSymbol",
          "type": "string"
        }
      ],
      "name": "send",
      "outputs": [],
      "stateMutability": "nonpayable",
      "type": "function"
    },
    {
      "inputs": [],
      "name": "token",
      "outputs": [
        {
          "internalType": "contract IERC20",
          "name": "",
          "type": "address"
        }
      ],
      "stateMutability": "view",
      "type": "function"
    }
  ],
  "transactionHash": "0x29058fe70d279c7202b0b744c15494395034be6842bd3dffc4704078cc559853",
  "args": [
    "0xC249632c2D40b9001FE907806902f63038B737Ab",
    "0x57F1c63497AEe0bE305B8852b354CEc793da43bB"
  ],
  "numDeployments": 1,
  "solcInputHash": "9994ae3a1b3acb2121bcb6727ec538f9",
  "bytecode": "0x60c060405234801561001057600080fd5b50604051610d6e380380610d6e83398181016040528101906100329190610104565b8173ffffffffffffffffffffffffffffffffffffffff1660808173ffffffffffffffffffffffffffffffffffffffff16815250508073ffffffffffffffffffffffffffffffffffffffff1660a08173ffffffffffffffffffffffffffffffffffffffff16815250505050610144565b600080fd5b600073ffffffffffffffffffffffffffffffffffffffff82169050919050565b60006100d1826100a6565b9050919050565b6100e1816100c6565b81146100ec57600080fd5b50565b6000815190506100fe816100d8565b92915050565b6000806040838503121561011b5761011a6100a1565b5b6000610129858286016100ef565b925050602061013a858286016100ef565b9150509250929050565b60805160a051610beb6101836000396000818160d70152818161017801526102ef01526000818160a0015281816101b401526102370152610beb6000f3fe608060405234801561001057600080fd5b50600436106100415760003560e01c8063116191b6146100465780635fcfd00e14610064578063fc0c546a14610080575b600080fd5b61004e61009e565b60405161005b91906105cc565b60405180910390f35b61007e600480360381019061007991906107b5565b6100c2565b005b6100886102ed565b6040516100959190610875565b60405180910390f35b7f000000000000000000000000000000000000000000000000000000000000000081565b6000620f4240856100d391906108bf565b90507f000000000000000000000000000000000000000000000000000000000000000073ffffffffffffffffffffffffffffffffffffffff166323b872dd3330846040518463ffffffff1660e01b81526004016101329392919061091f565b6020604051808303816000875af1158015610151573d6000803e3d6000fd5b505050506040513d601f19601f82011682018060405250810190610175919061098e565b507f000000000000000000000000000000000000000000000000000000000000000073ffffffffffffffffffffffffffffffffffffffff1663095ea7b37f0000000000000000000000000000000000000000000000000000000000000000836040518363ffffffff1660e01b81526004016101f19291906109bb565b6020604051808303816000875af1158015610210573d6000803e3d6000fd5b505050506040513d601f19601f82011682018060405250810190610234919061098e565b507f000000000000000000000000000000000000000000000000000000000000000073ffffffffffffffffffffffffffffffffffffffff166326ef699d846102938773ffffffffffffffffffffffffffffffffffffffff166014610311565b85856040518563ffffffff1660e01b81526004016102b49493929190610a63565b600060405180830381600087803b1580156102ce57600080fd5b505af11580156102e2573d6000803e3d6000fd5b505050505050505050565b7f000000000000000000000000000000000000000000000000000000000000000081565b60606000600283600261032491906108bf565b61032e9190610abd565b67ffffffffffffffff8111156103475761034661068a565b5b6040519080825280601f01601f1916602001820160405280156103795781602001600182028036833780820191505090505b5090507f3000000000000000000000000000000000000000000000000000000000000000816000815181106103b1576103b0610af1565b5b60200101907effffffffffffffffffffffffffffffffffffffffffffffffffffffffffffff1916908160001a9053507f78000000000000000000000000000000000000000000000000000000000000008160018151811061041557610414610af1565b5b60200101907effffffffffffffffffffffffffffffffffffffffffffffffffffffffffffff1916908160001a9053506000600184600261045591906108bf565b61045f9190610abd565b90505b60018111156104ff577f3031323334353637383961626364656600000000000000000000000000000000600f8616601081106104a1576104a0610af1565b5b1a60f81b8282815181106104b8576104b7610af1565b5b60200101907effffffffffffffffffffffffffffffffffffffffffffffffffffffffffffff1916908160001a905350600485901c9450806104f890610b20565b9050610462565b5060008414610543576040517f08c379a000000000000000000000000000000000000000000000000000000000815260040161053a90610b95565b60405180910390fd5b8091505092915050565b600073ffffffffffffffffffffffffffffffffffffffff82169050919050565b6000819050919050565b600061059261058d6105888461054d565b61056d565b61054d565b9050919050565b60006105a482610577565b9050919050565b60006105b682610599565b9050919050565b6105c6816105ab565b82525050565b60006020820190506105e160008301846105bd565b92915050565b6000604051905090565b600080fd5b600080fd5b6000819050919050565b61060e816105fb565b811461061957600080fd5b50565b60008135905061062b81610605565b92915050565b600061063c8261054d565b9050919050565b61064c81610631565b811461065757600080fd5b50565b60008135905061066981610643565b92915050565b600080fd5b600080fd5b6000601f19601f8301169050919050565b7f4e487b7100000000000000000000000000000000000000000000000000000000600052604160045260246000fd5b6106c282610679565b810181811067ffffffffffffffff821117156106e1576106e061068a565b5b80604052505050565b60006106f46105e7565b905061070082826106b9565b919050565b600067ffffffffffffffff8211156107205761071f61068a565b5b61072982610679565b9050602081019050919050565b82818337600083830152505050565b600061075861075384610705565b6106ea565b90508281526020810184848401111561077457610773610674565b5b61077f848285610736565b509392505050565b600082601f83011261079c5761079b61066f565b5b81356107ac848260208601610745565b91505092915050565b600080600080608085870312156107cf576107ce6105f1565b5b60006107dd8782880161061c565b94505060206107ee8782880161065a565b935050604085013567ffffffffffffffff81111561080f5761080e6105f6565b5b61081b87828801610787565b925050606085013567ffffffffffffffff81111561083c5761083b6105f6565b5b61084887828801610787565b91505092959194509250565b600061085f82610599565b9050919050565b61086f81610854565b82525050565b600060208201905061088a6000830184610866565b92915050565b7f4e487b7100000000000000000000000000000000000000000000000000000000600052601160045260246000fd5b60006108ca826105fb565b91506108d5836105fb565b92508282026108e3816105fb565b915082820484148315176108fa576108f9610890565b5b5092915050565b61090a81610631565b82525050565b610919816105fb565b82525050565b60006060820190506109346000830186610901565b6109416020830185610901565b61094e6040830184610910565b949350505050565b60008115159050919050565b61096b81610956565b811461097657600080fd5b50565b60008151905061098881610962565b92915050565b6000602082840312156109a4576109a36105f1565b5b60006109b284828501610979565b91505092915050565b60006040820190506109d06000830185610901565b6109dd6020830184610910565b9392505050565b600081519050919050565b600082825260208201905092915050565b60005b83811015610a1e578082015181840152602081019050610a03565b60008484015250505050565b6000610a35826109e4565b610a3f81856109ef565b9350610a4f818560208601610a00565b610a5881610679565b840191505092915050565b60006080820190508181036000830152610a7d8187610a2a565b90508181036020830152610a918186610a2a565b90508181036040830152610aa58185610a2a565b9050610ab46060830184610910565b95945050505050565b6000610ac8826105fb565b9150610ad3836105fb565b9250828201905080821115610aeb57610aea610890565b5b92915050565b7f4e487b7100000000000000000000000000000000000000000000000000000000600052603260045260246000fd5b6000610b2b826105fb565b915060008203610b3e57610b3d610890565b5b600182039050919050565b7f537472696e67733a20686578206c656e67746820696e73756666696369656e74600082015250565b6000610b7f6020836109ef565b9150610b8a82610b49565b602082019050919050565b60006020820190508181036000830152610bae81610b72565b905091905056fea2646970667358221220d5b6487c85a97ea7aebf865b40de4c9c7023c993e84518b59ceefbf5012d1e4f64736f6c63430008120033",
  "devdoc": {
    "kind": "dev",
    "methods": {},
    "version": 1
  },
  "userdoc": {
    "kind": "user",
    "methods": {},
    "version": 1
  },
  "storageLayout": {
    "storage": [],
    "types": null
  }
}