{
  "address": "0x60E796D2bCb766625A31B24a9E5542E2F042B9f9",
  "abi": [
    {
      "inputs": [
        {
          "internalType": "address",
          "name": "_gateway",
          "type": "address"
        },
        {
          "internalType": "address",
          "name": "_token",
          "type": "address"
        }
      ],
      "stateMutability": "nonpayable",
      "type": "constructor"
    },
    {
      "inputs": [],
      "name": "gateway",
      "outputs": [
        {
          "internalType": "contract IAxelarGateway",
          "name": "",
          "type": "address"
        }
      ],
      "stateMutability": "view",
      "type": "function"
    },
    {
      "inputs": [],
      "name": "send",
      "outputs": [],
      "stateMutability": "nonpayable",
      "type": "function"
    },
    {
      "inputs": [],
      "name": "token",
      "outputs": [
        {
          "internalType": "contract IERC20",
          "name": "",
          "type": "address"
        }
      ],
      "stateMutability": "view",
      "type": "function"
    }
  ],
  "transactionHash": "0xc38d354d0f1e002c34f738c7d08774f6476474f25e49ef817db79fa7547b0784",
  "args": [
    "0xC249632c2D40b9001FE907806902f63038B737Ab",
    "0x57F1c63497AEe0bE305B8852b354CEc793da43bB"
  ],
  "numDeployments": 1,
  "solcInputHash": "058159b4ca41d598b71525f3566e4317",
  "bytecode": "0x60c060405234801561001057600080fd5b506040516106ec3803806106ec83398181016040528101906100329190610104565b8173ffffffffffffffffffffffffffffffffffffffff1660808173ffffffffffffffffffffffffffffffffffffffff16815250508073ffffffffffffffffffffffffffffffffffffffff1660a08173ffffffffffffffffffffffffffffffffffffffff16815250505050610144565b600080fd5b600073ffffffffffffffffffffffffffffffffffffffff82169050919050565b60006100d1826100a6565b9050919050565b6100e1816100c6565b81146100ec57600080fd5b50565b6000815190506100fe816100d8565b92915050565b6000806040838503121561011b5761011a6100a1565b5b6000610129858286016100ef565b925050602061013a858286016100ef565b9150509250929050565b60805160a05161057161017b6000396000818160ba0152610207015260008181608e0152818160f6015261017901526105716000f3fe608060405234801561001057600080fd5b50600436106100415760003560e01c8063116191b614610046578063b46300ec14610064578063fc0c546a1461006e575b600080fd5b61004e61008c565b60405161005b91906102a8565b60405180910390f35b61006c6100b0565b005b610076610205565b60405161008391906102e4565b60405180910390f35b7f000000000000000000000000000000000000000000000000000000000000000081565b6000620f424090507f000000000000000000000000000000000000000000000000000000000000000073ffffffffffffffffffffffffffffffffffffffff1663095ea7b37f0000000000000000000000000000000000000000000000000000000000000000836040518363ffffffff1660e01b8152600401610133929190610339565b6020604051808303816000875af1158015610152573d6000803e3d6000fd5b505050506040513d601f19601f82011682018060405250810190610176919061039f565b507f000000000000000000000000000000000000000000000000000000000000000073ffffffffffffffffffffffffffffffffffffffff166326ef699d826040518263ffffffff1660e01b81526004016101d091906104e7565b600060405180830381600087803b1580156101ea57600080fd5b505af11580156101fe573d6000803e3d6000fd5b5050505050565b7f000000000000000000000000000000000000000000000000000000000000000081565b600073ffffffffffffffffffffffffffffffffffffffff82169050919050565b6000819050919050565b600061026e61026961026484610229565b610249565b610229565b9050919050565b600061028082610253565b9050919050565b600061029282610275565b9050919050565b6102a281610287565b82525050565b60006020820190506102bd6000830184610299565b92915050565b60006102ce82610275565b9050919050565b6102de816102c3565b82525050565b60006020820190506102f960008301846102d5565b92915050565b600061030a82610229565b9050919050565b61031a816102ff565b82525050565b6000819050919050565b61033381610320565b82525050565b600060408201905061034e6000830185610311565b61035b602083018461032a565b9392505050565b600080fd5b60008115159050919050565b61037c81610367565b811461038757600080fd5b50565b60008151905061039981610373565b92915050565b6000602082840312156103b5576103b4610362565b5b60006103c38482850161038a565b91505092915050565b600082825260208201905092915050565b7f506f6c79676f6e00000000000000000000000000000000000000000000000000600082015250565b60006104136007836103cc565b915061041e826103dd565b602082019050919050565b7f307864633939416645356338633763303842333031613933383635423965373260008201527f3766354139456538343500000000000000000000000000000000000000000000602082015250565b6000610485602a836103cc565b915061049082610429565b604082019050919050565b7f6155534443000000000000000000000000000000000000000000000000000000600082015250565b60006104d16005836103cc565b91506104dc8261049b565b602082019050919050565b6000608082019050818103600083015261050081610406565b9050818103602083015261051381610478565b90508181036040830152610526816104c4565b9050610535606083018461032a565b9291505056fea2646970667358221220a16dd127cf6093783525dd5c1bf701224bf4cd276df419667429b5bf584e1ba064736f6c63430008120033",
  "devdoc": {
    "kind": "dev",
    "methods": {},
    "version": 1
  },
  "userdoc": {
    "kind": "user",
    "methods": {},
    "version": 1
  },
  "storageLayout": {
    "storage": [],
    "types": null
  }
}