{
  "address": "0x48D5E1bd783D6808046fA94D857A9AA7932a0ec6",
  "abi": [
    {
      "inputs": [
        {
          "internalType": "address",
          "name": "_gateway",
          "type": "address"
        },
        {
          "internalType": "address",
          "name": "_token",
          "type": "address"
        }
      ],
      "stateMutability": "nonpayable",
      "type": "constructor"
    },
    {
      "inputs": [],
      "name": "gateway",
      "outputs": [
        {
          "internalType": "contract IAxelarGateway",
          "name": "",
          "type": "address"
        }
      ],
      "stateMutability": "view",
      "type": "function"
    },
    {
      "inputs": [
        {
          "internalType": "uint256",
          "name": "tokenAmount",
          "type": "uint256"
        },
        {
          "internalType": "address",
          "name": "receiver",
          "type": "address"
        }
      ],
      "name": "send",
      "outputs": [],
      "stateMutability": "nonpayable",
      "type": "function"
    },
    {
      "inputs": [],
      "name": "token",
      "outputs": [
        {
          "internalType": "contract IERC20",
          "name": "",
          "type": "address"
        }
      ],
      "stateMutability": "view",
      "type": "function"
    }
  ],
  "transactionHash": "0x8ea7206fc60206c1b29ee77c49b56df9aeb599b50de976948dcf6ff3a69ee28c",
  "args": [
    "0xC249632c2D40b9001FE907806902f63038B737Ab",
    "0x57F1c63497AEe0bE305B8852b354CEc793da43bB"
  ],
  "numDeployments": 3,
  "solcInputHash": "4ca32653900a9d6ce075d679227c061a",
  "bytecode": "0x60c060405234801561001057600080fd5b50604051610ba9380380610ba983398181016040528101906100329190610104565b8173ffffffffffffffffffffffffffffffffffffffff1660808173ffffffffffffffffffffffffffffffffffffffff16815250508073ffffffffffffffffffffffffffffffffffffffff1660a08173ffffffffffffffffffffffffffffffffffffffff16815250505050610144565b600080fd5b600073ffffffffffffffffffffffffffffffffffffffff82169050919050565b60006100d1826100a6565b9050919050565b6100e1816100c6565b81146100ec57600080fd5b50565b6000815190506100fe816100d8565b92915050565b6000806040838503121561011b5761011a6100a1565b5b6000610129858286016100ef565b925050602061013a858286016100ef565b9150509250929050565b60805160a051610a2d61017c6000396000818160d7015261024801526000818160a00152818161011301526101960152610a2d6000f3fe608060405234801561001057600080fd5b50600436106100415760003560e01c8063116191b614610046578063785d04f514610064578063fc0c546a14610080575b600080fd5b61004e61009e565b60405161005b9190610525565b60405180910390f35b61007e600480360381019061007991906105b9565b6100c2565b005b610088610246565b604051610095919061061a565b60405180910390f35b7f000000000000000000000000000000000000000000000000000000000000000081565b6000620f4240836100d39190610664565b90507f000000000000000000000000000000000000000000000000000000000000000073ffffffffffffffffffffffffffffffffffffffff1663095ea7b37f0000000000000000000000000000000000000000000000000000000000000000836040518363ffffffff1660e01b81526004016101509291906106c4565b6020604051808303816000875af115801561016f573d6000803e3d6000fd5b505050506040513d601f19601f820116820180604052508101906101939190610725565b507f000000000000000000000000000000000000000000000000000000000000000073ffffffffffffffffffffffffffffffffffffffff166326ef699d6101f18473ffffffffffffffffffffffffffffffffffffffff16601461026a565b836040518363ffffffff1660e01b815260040161020f92919061087a565b600060405180830381600087803b15801561022957600080fd5b505af115801561023d573d6000803e3d6000fd5b50505050505050565b7f000000000000000000000000000000000000000000000000000000000000000081565b60606000600283600261027d9190610664565b61028791906108d0565b67ffffffffffffffff8111156102a05761029f610904565b5b6040519080825280601f01601f1916602001820160405280156102d25781602001600182028036833780820191505090505b5090507f30000000000000000000000000000000000000000000000000000000000000008160008151811061030a57610309610933565b5b60200101907effffffffffffffffffffffffffffffffffffffffffffffffffffffffffffff1916908160001a9053507f78000000000000000000000000000000000000000000000000000000000000008160018151811061036e5761036d610933565b5b60200101907effffffffffffffffffffffffffffffffffffffffffffffffffffffffffffff1916908160001a905350600060018460026103ae9190610664565b6103b891906108d0565b90505b6001811115610458577f3031323334353637383961626364656600000000000000000000000000000000600f8616601081106103fa576103f9610933565b5b1a60f81b82828151811061041157610410610933565b5b60200101907effffffffffffffffffffffffffffffffffffffffffffffffffffffffffffff1916908160001a905350600485901c94508061045190610962565b90506103bb565b506000841461049c576040517f08c379a0000000000000000000000000000000000000000000000000000000008152600401610493906109d7565b60405180910390fd5b8091505092915050565b600073ffffffffffffffffffffffffffffffffffffffff82169050919050565b6000819050919050565b60006104eb6104e66104e1846104a6565b6104c6565b6104a6565b9050919050565b60006104fd826104d0565b9050919050565b600061050f826104f2565b9050919050565b61051f81610504565b82525050565b600060208201905061053a6000830184610516565b92915050565b600080fd5b6000819050919050565b61055881610545565b811461056357600080fd5b50565b6000813590506105758161054f565b92915050565b6000610586826104a6565b9050919050565b6105968161057b565b81146105a157600080fd5b50565b6000813590506105b38161058d565b92915050565b600080604083850312156105d0576105cf610540565b5b60006105de85828601610566565b92505060206105ef858286016105a4565b9150509250929050565b6000610604826104f2565b9050919050565b610614816105f9565b82525050565b600060208201905061062f600083018461060b565b92915050565b7f4e487b7100000000000000000000000000000000000000000000000000000000600052601160045260246000fd5b600061066f82610545565b915061067a83610545565b925082820261068881610545565b9150828204841483151761069f5761069e610635565b5b5092915050565b6106af8161057b565b82525050565b6106be81610545565b82525050565b60006040820190506106d960008301856106a6565b6106e660208301846106b5565b9392505050565b60008115159050919050565b610702816106ed565b811461070d57600080fd5b50565b60008151905061071f816106f9565b92915050565b60006020828403121561073b5761073a610540565b5b600061074984828501610710565b91505092915050565b600082825260208201905092915050565b7f506f6c79676f6e00000000000000000000000000000000000000000000000000600082015250565b6000610799600783610752565b91506107a482610763565b602082019050919050565b600081519050919050565b60005b838110156107d85780820151818401526020810190506107bd565b60008484015250505050565b6000601f19601f8301169050919050565b6000610800826107af565b61080a8185610752565b935061081a8185602086016107ba565b610823816107e4565b840191505092915050565b7f6155534443000000000000000000000000000000000000000000000000000000600082015250565b6000610864600583610752565b915061086f8261082e565b602082019050919050565b600060808201905081810360008301526108938161078c565b905081810360208301526108a781856107f5565b905081810360408301526108ba81610857565b90506108c960608301846106b5565b9392505050565b60006108db82610545565b91506108e683610545565b92508282019050808211156108fe576108fd610635565b5b92915050565b7f4e487b7100000000000000000000000000000000000000000000000000000000600052604160045260246000fd5b7f4e487b7100000000000000000000000000000000000000000000000000000000600052603260045260246000fd5b600061096d82610545565b9150600082036109805761097f610635565b5b600182039050919050565b7f537472696e67733a20686578206c656e67746820696e73756666696369656e74600082015250565b60006109c1602083610752565b91506109cc8261098b565b602082019050919050565b600060208201905081810360008301526109f0816109b4565b905091905056fea26469706673582212203b5a20afbb8bb2d2de3750c9ddef50213eb618e7fec65d40e2b563c160ad88bf64736f6c63430008120033",
  "devdoc": {
    "kind": "dev",
    "methods": {},
    "version": 1
  },
  "userdoc": {
    "kind": "user",
    "methods": {},
    "version": 1
  },
  "storageLayout": {
    "storage": [],
    "types": null
  }
}